{"abi":[{"type":"constructor","inputs":[{"name":"_maxCoins","type":"uint256","internalType":"uint256"},{"name":"_feePercentage","type":"uint256","internalType":"uint256"}],"stateMutability":"nonpayable"},{"type":"receive","stateMutability":"payable"},{"type":"function","name":"acceptedTokens","inputs":[{"name":"","type":"address","internalType":"address"}],"outputs":[{"name":"","type":"bool","internalType":"bool"}],"stateMutability":"view"},{"type":"function","name":"addAcceptedToken","inputs":[{"name":"token","type":"address","internalType":"address"}],"outputs":[],"stateMutability":"nonpayable"},{"type":"function","name":"cancelOwnershipHandover","inputs":[],"outputs":[],"stateMutability":"payable"},{"type":"function","name":"completeOwnershipHandover","inputs":[{"name":"pendingOwner","type":"address","internalType":"address"}],"outputs":[],"stateMutability":"payable"},{"type":"function","name":"feePercentage","inputs":[],"outputs":[{"name":"","type":"uint256","internalType":"uint256"}],"stateMutability":"view"},{"type":"function","name":"flip","inputs":[{"name":"betAmount","type":"uint256","internalType":"uint256"},{"name":"numberOfCoins","type":"uint256","internalType":"uint256"},{"name":"headsRequired","type":"uint256","internalType":"uint256"},{"name":"token","type":"address","internalType":"address"}],"outputs":[],"stateMutability":"nonpayable"},{"type":"function","name":"maxCoins","inputs":[],"outputs":[{"name":"","type":"uint256","internalType":"uint256"}],"stateMutability":"view"},{"type":"function","name":"owner","inputs":[],"outputs":[{"name":"result","type":"address","internalType":"address"}],"stateMutability":"view"},{"type":"function","name":"ownershipHandoverExpiresAt","inputs":[{"name":"pendingOwner","type":"address","internalType":"address"}],"outputs":[{"name":"result","type":"uint256","internalType":"uint256"}],"stateMutability":"view"},{"type":"function","name":"removeAcceptedToken","inputs":[{"name":"token","type":"address","internalType":"address"}],"outputs":[],"stateMutability":"nonpayable"},{"type":"function","name":"renounceOwnership","inputs":[],"outputs":[],"stateMutability":"payable"},{"type":"function","name":"requestOwnershipHandover","inputs":[],"outputs":[],"stateMutability":"payable"},{"type":"function","name":"setFeePercentage","inputs":[{"name":"_feePercentage","type":"uint256","internalType":"uint256"}],"outputs":[],"stateMutability":"nonpayable"},{"type":"function","name":"setMaxCoins","inputs":[{"name":"_maxCoins","type":"uint256","internalType":"uint256"}],"outputs":[],"stateMutability":"nonpayable"},{"type":"function","name":"transferOwnership","inputs":[{"name":"newOwner","type":"address","internalType":"address"}],"outputs":[],"stateMutability":"payable"},{"type":"function","name":"withdrawEther","inputs":[{"name":"amount","type":"uint256","internalType":"uint256"}],"outputs":[],"stateMutability":"nonpayable"},{"type":"function","name":"withdrawFunds","inputs":[{"name":"token","type":"address","internalType":"address"},{"name":"amount","type":"uint256","internalType":"uint256"}],"outputs":[],"stateMutability":"nonpayable"},{"type":"event","name":"GameResult","inputs":[{"name":"player","type":"address","indexed":true,"internalType":"address"},{"name":"won","type":"bool","indexed":false,"internalType":"bool"},{"name":"payout","type":"uint256","indexed":false,"internalType":"uint256"}],"anonymous":false},{"type":"event","name":"OwnershipHandoverCanceled","inputs":[{"name":"pendingOwner","type":"address","indexed":true,"internalType":"address"}],"anonymous":false},{"type":"event","name":"OwnershipHandoverRequested","inputs":[{"name":"pendingOwner","type":"address","indexed":true,"internalType":"address"}],"anonymous":false},{"type":"event","name":"OwnershipTransferred","inputs":[{"name":"oldOwner","type":"address","indexed":true,"internalType":"address"},{"name":"newOwner","type":"address","indexed":true,"internalType":"address"}],"anonymous":false},{"type":"error","name":"AlreadyInitialized","inputs":[]},{"type":"error","name":"NewOwnerIsZeroAddress","inputs":[]},{"type":"error","name":"NoHandoverRequest","inputs":[]},{"type":"error","name":"Reentrancy","inputs":[]},{"type":"error","name":"Unauthorized","inputs":[]}],"bytecode":{"object":"0x6080604052348015600f57600080fd5b50604051610c4a380380610c4a833981016040819052602c91607c565b6033336040565b600091909155600155609f565b6001600160a01b0316638b78c6d8198190558060007f8be0079c531659141344cd1fd0a4f28419497f9722a3daafe3b4186f6b6457e08180a350565b60008060408385031215608e57600080fd5b505080516020909101519092909150565b610b9c806100ae6000396000f3fe6080604052600436106101025760003560e01c8063a001ecdd11610095578063d01ae44c11610064578063d01ae44c14610273578063d8134a2314610293578063f04e283e146102b3578063f2fde38b146102c6578063fee81cf4146102d957600080fd5b8063a001ecdd146101fd578063ae06c1b714610213578063b99a4ea114610233578063c10753291461025357600080fd5b8063715018a6116100d1578063715018a61461016057806382dc4a05146101685780638da5cb5b146101ad57806396ee6919146101d957600080fd5b8063256929621461010e5780633bed33ce146101185780633eee83f11461013857806354d1f13d1461015857600080fd5b3661010957005b600080fd5b61011661030c565b005b34801561012457600080fd5b506101166101333660046109ed565b61035c565b34801561014457600080fd5b50610116610153366004610a22565b6103a7565b6101166103d3565b61011661040f565b34801561017457600080fd5b50610198610183366004610a22565b60026020526000908152604090205460ff1681565b60405190151581526020015b60405180910390f35b3480156101b957600080fd5b50638b78c6d819546040516001600160a01b0390911681526020016101a4565b3480156101e557600080fd5b506101ef60005481565b6040519081526020016101a4565b34801561020957600080fd5b506101ef60015481565b34801561021f57600080fd5b5061011661022e3660046109ed565b610423565b34801561023f57600080fd5b5061011661024e3660046109ed565b610487565b34801561025f57600080fd5b5061011661026e366004610a44565b6104e5565b34801561027f57600080fd5b5061011661028e366004610a6e565b61057f565b34801561029f57600080fd5b506101166102ae366004610a22565b61081c565b6101166102c1366004610a22565b610845565b6101166102d4366004610a22565b610885565b3480156102e557600080fd5b506101ef6102f4366004610a22565b63389a75e1600c908152600091909152602090205490565b60006202a30067ffffffffffffffff164201905063389a75e1600c5233600052806020600c2055337fdbf36a107da19e49527a7176a1babf963b4b0ff8cde35ee35d6cd8f1f9ac7e1d600080a250565b6103646108ac565b638b78c6d819546001600160a01b03166108fc829081150290604051600060405180830381858888f193505050501580156103a3573d6000803e3d6000fd5b5050565b6103af6108ac565b6001600160a01b03166000908152600260205260409020805460ff19166001179055565b63389a75e1600c523360005260006020600c2055337ffa7b8eab7da67f412cc9575ed43464468f9bfbae89d1675917346ca6d8fe3c92600080a2565b6104176108ac565b61042160006108c7565b565b61042b6108ac565b6127108111156104825760405162461bcd60e51b815260206004820152601760248201527f4665652070657263656e7461676520746f6f206869676800000000000000000060448201526064015b60405180910390fd5b600155565b61048f6108ac565b60018110156104e05760405162461bcd60e51b815260206004820152601c60248201527f4d617820636f696e73206d757374206265206174206c656173742031000000006044820152606401610479565b600055565b6104ed6108ac565b816001600160a01b031663a9059cbb610509638b78c6d8195490565b6040516001600160e01b031960e084901b1681526001600160a01b039091166004820152602481018490526044016020604051808303816000875af1158015610556573d6000803e3d6000fd5b505050506040513d601f19601f8201168201806040525081019061057a9190610aad565b505050565b3068929eee149b4bd21268540361059e5763ab143c066000526004601cfd5b3068929eee149b4bd21268556001600160a01b03811660009081526002602052604090205460ff166106075760405162461bcd60e51b8152602060048201526012602482015271151bdad95b881b9bdd081858d8d95c1d195960721b6044820152606401610479565b6001831015801561061a57506000548311155b6106665760405162461bcd60e51b815260206004820152601760248201527f496e76616c6964206e756d626572206f6620636f696e730000000000000000006044820152606401610479565b600182101580156106775750828211155b6106bc5760405162461bcd60e51b8152602060048201526016602482015275125b9d985b1a59081a1958591cc81c995c5d5a5c995960521b6044820152606401610479565b6040516323b872dd60e01b8152336004820152306024820152604481018590526001600160a01b038216906323b872dd906064016020604051808303816000875af115801561070f573d6000803e3d6000fd5b505050506040513d601f19601f820116820180604052508101906107339190610aad565b5060006107408484610905565b9050600081156107cb576107558686866109a0565b60405163a9059cbb60e01b8152336004820152602481018290529091506001600160a01b0384169063a9059cbb906044016020604051808303816000875af11580156107a5573d6000803e3d6000fd5b505050506040513d601f19601f820116820180604052508101906107c99190610aad565b505b6040805183151581526020810183905233917f917ed633130aae9351fcee877554607b5d2fa7a5c78c8f8c194b653d362aae22910160405180910390a250503868929eee149b4bd212685550505050565b6108246108ac565b6001600160a01b03166000908152600260205260409020805460ff19169055565b61084d6108ac565b63389a75e1600c52806000526020600c20805442111561087557636f5e88186000526004601cfd5b60009055610882816108c7565b50565b61088d6108ac565b8060601b6108a357637448fbae6000526004601cfd5b610882816108c7565b638b78c6d819543314610421576382b429006000526004601cfd5b638b78c6d81980546001600160a01b039092169182907f8be0079c531659141344cd1fd0a4f28419497f9722a3daafe3b4186f6b6457e0600080a355565b600080805b84811015610993576002424433846040516020016109539493929190938452602084019290925260601b6bffffffffffffffffffffffff19166040830152605482015260740190565b6040516020818303038152906040528051906020012060001c6109769190610ae5565b60000361098b578161098781610b0f565b9250505b60010161090a565b5082111590505b92915050565b600080826109ae8587610b28565b6109b89190610b3f565b90506000612710600154836109cd9190610b28565b6109d79190610b3f565b90506109e38183610b53565b9695505050505050565b6000602082840312156109ff57600080fd5b5035919050565b80356001600160a01b0381168114610a1d57600080fd5b919050565b600060208284031215610a3457600080fd5b610a3d82610a06565b9392505050565b60008060408385031215610a5757600080fd5b610a6083610a06565b946020939093013593505050565b60008060008060808587031215610a8457600080fd5b843593506020850135925060408501359150610aa260608601610a06565b905092959194509250565b600060208284031215610abf57600080fd5b81518015158114610a3d57600080fd5b634e487b7160e01b600052601260045260246000fd5b600082610af457610af4610acf565b500690565b634e487b7160e01b600052601160045260246000fd5b600060018201610b2157610b21610af9565b5060010190565b808202811582820484141761099a5761099a610af9565b600082610b4e57610b4e610acf565b500490565b8181038181111561099a5761099a610af956fea264697066735822122066b7581ef46ac281287d97e46a80677dc32c0a6563a75a6f99928a2b9cb99d8364736f6c63430008190033","linkReferences":{}},"methodIdentifiers":{"acceptedTokens(address)":"82dc4a05","addAcceptedToken(address)":"3eee83f1","cancelOwnershipHandover()":"54d1f13d","completeOwnershipHandover(address)":"f04e283e","feePercentage()":"a001ecdd","flip(uint256,uint256,uint256,address)":"d01ae44c","maxCoins()":"96ee6919","owner()":"8da5cb5b","ownershipHandoverExpiresAt(address)":"fee81cf4","removeAcceptedToken(address)":"d8134a23","renounceOwnership()":"715018a6","requestOwnershipHandover()":"25692962","setFeePercentage(uint256)":"ae06c1b7","setMaxCoins(uint256)":"b99a4ea1","transferOwnership(address)":"f2fde38b","withdrawEther(uint256)":"3bed33ce","withdrawFunds(address,uint256)":"c1075329"},"id":26}