{"abi":[{"type":"constructor","inputs":[{"name":"_stakingToken","type":"address","internalType":"address"},{"name":"_maxCoins","type":"uint256","internalType":"uint256"},{"name":"_feePercentage","type":"uint256","internalType":"uint256"}],"stateMutability":"nonpayable"},{"type":"receive","stateMutability":"payable"},{"type":"function","name":"COOLDOWN_PERIOD","inputs":[],"outputs":[{"name":"","type":"uint256","internalType":"uint256"}],"stateMutability":"view"},{"type":"function","name":"acceptedTokens","inputs":[{"name":"","type":"address","internalType":"address"}],"outputs":[{"name":"","type":"bool","internalType":"bool"}],"stateMutability":"view"},{"type":"function","name":"accumulatedFees","inputs":[],"outputs":[{"name":"","type":"uint256","internalType":"uint256"}],"stateMutability":"view"},{"type":"function","name":"addAcceptedToken","inputs":[{"name":"token","type":"address","internalType":"address"}],"outputs":[],"stateMutability":"nonpayable"},{"type":"function","name":"cancelOwnershipHandover","inputs":[],"outputs":[],"stateMutability":"payable"},{"type":"function","name":"completeOwnershipHandover","inputs":[{"name":"pendingOwner","type":"address","internalType":"address"}],"outputs":[],"stateMutability":"payable"},{"type":"function","name":"earned","inputs":[{"name":"account","type":"address","internalType":"address"}],"outputs":[{"name":"","type":"uint256","internalType":"uint256"}],"stateMutability":"view"},{"type":"function","name":"feePercentage","inputs":[],"outputs":[{"name":"","type":"uint256","internalType":"uint256"}],"stateMutability":"view"},{"type":"function","name":"flip","inputs":[{"name":"betAmount","type":"uint256","internalType":"uint256"},{"name":"numberOfCoins","type":"uint256","internalType":"uint256"},{"name":"headsRequired","type":"uint256","internalType":"uint256"},{"name":"token","type":"address","internalType":"address"}],"outputs":[{"name":"","type":"uint256","internalType":"uint256"}],"stateMutability":"nonpayable"},{"type":"function","name":"getReward","inputs":[],"outputs":[],"stateMutability":"nonpayable"},{"type":"function","name":"lastRewardPerTokenPaid","inputs":[{"name":"","type":"address","internalType":"address"}],"outputs":[{"name":"","type":"uint256","internalType":"uint256"}],"stateMutability":"view"},{"type":"function","name":"lastStakeTime","inputs":[{"name":"","type":"address","internalType":"address"}],"outputs":[{"name":"","type":"uint256","internalType":"uint256"}],"stateMutability":"view"},{"type":"function","name":"lastUpdateTime","inputs":[],"outputs":[{"name":"","type":"uint256","internalType":"uint256"}],"stateMutability":"view"},{"type":"function","name":"maxCoins","inputs":[],"outputs":[{"name":"","type":"uint256","internalType":"uint256"}],"stateMutability":"view"},{"type":"function","name":"owner","inputs":[],"outputs":[{"name":"result","type":"address","internalType":"address"}],"stateMutability":"view"},{"type":"function","name":"ownershipHandoverExpiresAt","inputs":[{"name":"pendingOwner","type":"address","internalType":"address"}],"outputs":[{"name":"result","type":"uint256","internalType":"uint256"}],"stateMutability":"view"},{"type":"function","name":"removeAcceptedToken","inputs":[{"name":"token","type":"address","internalType":"address"}],"outputs":[],"stateMutability":"nonpayable"},{"type":"function","name":"renounceOwnership","inputs":[],"outputs":[],"stateMutability":"payable"},{"type":"function","name":"requestOwnershipHandover","inputs":[],"outputs":[],"stateMutability":"payable"},{"type":"function","name":"rewardPerToken","inputs":[],"outputs":[{"name":"","type":"uint256","internalType":"uint256"}],"stateMutability":"view"},{"type":"function","name":"rewardPerTokenStored","inputs":[],"outputs":[{"name":"","type":"uint256","internalType":"uint256"}],"stateMutability":"view"},{"type":"function","name":"rewards","inputs":[{"name":"","type":"address","internalType":"address"}],"outputs":[{"name":"","type":"uint256","internalType":"uint256"}],"stateMutability":"view"},{"type":"function","name":"setFeePercentage","inputs":[{"name":"_feePercentage","type":"uint256","internalType":"uint256"}],"outputs":[],"stateMutability":"nonpayable"},{"type":"function","name":"setMaxCoins","inputs":[{"name":"_maxCoins","type":"uint256","internalType":"uint256"}],"outputs":[],"stateMutability":"nonpayable"},{"type":"function","name":"stake","inputs":[{"name":"amount","type":"uint256","internalType":"uint256"}],"outputs":[],"stateMutability":"nonpayable"},{"type":"function","name":"stakedBalances","inputs":[{"name":"","type":"address","internalType":"address"}],"outputs":[{"name":"","type":"uint256","internalType":"uint256"}],"stateMutability":"view"},{"type":"function","name":"stakingToken","inputs":[],"outputs":[{"name":"","type":"address","internalType":"contract IERC20"}],"stateMutability":"view"},{"type":"function","name":"timeUntilUnstake","inputs":[{"name":"user","type":"address","internalType":"address"}],"outputs":[{"name":"","type":"uint256","internalType":"uint256"}],"stateMutability":"view"},{"type":"function","name":"totalStaked","inputs":[],"outputs":[{"name":"","type":"uint256","internalType":"uint256"}],"stateMutability":"view"},{"type":"function","name":"transferOwnership","inputs":[{"name":"newOwner","type":"address","internalType":"address"}],"outputs":[],"stateMutability":"payable"},{"type":"function","name":"unstake","inputs":[{"name":"amount","type":"uint256","internalType":"uint256"}],"outputs":[],"stateMutability":"nonpayable"},{"type":"function","name":"withdrawFunds","inputs":[{"name":"token","type":"address","internalType":"address"},{"name":"amount","type":"uint256","internalType":"uint256"}],"outputs":[],"stateMutability":"nonpayable"},{"type":"event","name":"GameResult","inputs":[{"name":"player","type":"address","indexed":true,"internalType":"address"},{"name":"won","type":"bool","indexed":false,"internalType":"bool"},{"name":"payout","type":"uint256","indexed":false,"internalType":"uint256"}],"anonymous":false},{"type":"event","name":"OwnershipHandoverCanceled","inputs":[{"name":"pendingOwner","type":"address","indexed":true,"internalType":"address"}],"anonymous":false},{"type":"event","name":"OwnershipHandoverRequested","inputs":[{"name":"pendingOwner","type":"address","indexed":true,"internalType":"address"}],"anonymous":false},{"type":"event","name":"OwnershipTransferred","inputs":[{"name":"oldOwner","type":"address","indexed":true,"internalType":"address"},{"name":"newOwner","type":"address","indexed":true,"internalType":"address"}],"anonymous":false},{"type":"event","name":"RewardPaid","inputs":[{"name":"user","type":"address","indexed":true,"internalType":"address"},{"name":"reward","type":"uint256","indexed":false,"internalType":"uint256"}],"anonymous":false},{"type":"event","name":"Staked","inputs":[{"name":"user","type":"address","indexed":true,"internalType":"address"},{"name":"amount","type":"uint256","indexed":false,"internalType":"uint256"}],"anonymous":false},{"type":"event","name":"Unstaked","inputs":[{"name":"user","type":"address","indexed":true,"internalType":"address"},{"name":"amount","type":"uint256","indexed":false,"internalType":"uint256"}],"anonymous":false},{"type":"error","name":"AlreadyInitialized","inputs":[]},{"type":"error","name":"NewOwnerIsZeroAddress","inputs":[]},{"type":"error","name":"NoHandoverRequest","inputs":[]},{"type":"error","name":"Reentrancy","inputs":[]},{"type":"error","name":"Unauthorized","inputs":[]}],"bytecode":{"object":"0x6080604052348015600f57600080fd5b506040516119b43803806119b4833981016040819052602c91609a565b603333605e565b600280546001600160a01b0319166001600160a01b03949094169390931790925560005560015560db565b6001600160a01b0316638b78c6d8198190558060007f8be0079c531659141344cd1fd0a4f28419497f9722a3daafe3b4186f6b6457e08180a350565b60008060006060848603121560ae57600080fd5b83516001600160a01b038116811460c457600080fd5b602085015160409095015190969495509392505050565b6118ca806100ea6000396000f3fe6080604052600436106101e65760003560e01c806396ee691911610102578063d01ae44c11610095578063f04e283e11610064578063f04e283e14610549578063f19d9b8c1461055c578063f2fde38b1461057c578063fee81cf41461058f57600080fd5b8063d01ae44c146104c6578063d2383920146104e6578063d8134a2314610513578063df136d651461053357600080fd5b8063b99a4ea1116100d1578063b99a4ea11461045b578063c10753291461047b578063c8f33c911461049b578063cd3daf9d146104b157600080fd5b806396ee6919146103ef578063a001ecdd14610405578063a694fc3a1461041b578063ae06c1b71461043b57600080fd5b8063587f5ed71161017a5780637bb1ca19116101495780637bb1ca1914610353578063817b1cd21461038057806382dc4a05146103965780638da5cb5b146103d657600080fd5b8063587f5ed7146102e65780636e99d52f146102fc578063715018a61461031357806372f702f31461031b57600080fd5b80632e17de78116101b65780632e17de78146102895780633d18b912146102a95780633eee83f1146102be57806354d1f13d146102de57600080fd5b80628cc262146101f25780630700037d146102255780631460fa8714610252578063256929621461027f57600080fd5b366101ed57005b600080fd5b3480156101fe57600080fd5b5061021261020d366004611622565b6105c2565b6040519081526020015b60405180910390f35b34801561023157600080fd5b50610212610240366004611622565b60086020526000908152604090205481565b34801561025e57600080fd5b5061021261026d366004611622565b60076020526000908152604090205481565b61028761063f565b005b34801561029557600080fd5b506102876102a436600461163d565b61068f565b3480156102b557600080fd5b50610287610964565b3480156102ca57600080fd5b506102876102d9366004611622565b610b9e565b610287610bca565b3480156102f257600080fd5b5061021260045481565b34801561030857600080fd5b506102126202a30081565b610287610c06565b34801561032757600080fd5b5060025461033b906001600160a01b031681565b6040516001600160a01b03909116815260200161021c565b34801561035f57600080fd5b5061021261036e366004611622565b600a6020526000908152604090205481565b34801561038c57600080fd5b5061021260035481565b3480156103a257600080fd5b506103c66103b1366004611622565b60066020526000908152604090205460ff1681565b604051901515815260200161021c565b3480156103e257600080fd5b50638b78c6d8195461033b565b3480156103fb57600080fd5b5061021260005481565b34801561041157600080fd5b5061021260015481565b34801561042757600080fd5b5061028761043636600461163d565b610c1a565b34801561044757600080fd5b5061028761045636600461163d565b610e19565b34801561046757600080fd5b5061028761047636600461163d565b610e78565b34801561048757600080fd5b50610287610496366004611656565b610ed6565b3480156104a757600080fd5b5061021260055481565b3480156104bd57600080fd5b50610212610fbb565b3480156104d257600080fd5b506102126104e1366004611680565b611019565b3480156104f257600080fd5b50610212610501366004611622565b60096020526000908152604090205481565b34801561051f57600080fd5b5061028761052e366004611622565b611413565b34801561053f57600080fd5b50610212600b5481565b610287610557366004611622565b61143c565b34801561056857600080fd5b50610212610577366004611622565b61147c565b61028761058a366004611622565b6114ca565b34801561059b57600080fd5b506102126105aa366004611622565b63389a75e1600c908152600091909152602090205490565b6001600160a01b0381166000908152600860209081526040808320546009909252822054670de0b6b3a7640000906105f8610fbb565b61060291906116d5565b6001600160a01b03851660009081526007602052604090205461062591906116e8565b61062f9190611715565b6106399190611729565b92915050565b60006202a30067ffffffffffffffff164201905063389a75e1600c5233600052806020600c2055337fdbf36a107da19e49527a7176a1babf963b4b0ff8cde35ee35d6cd8f1f9ac7e1d600080a250565b3068929eee149b4bd2126854036106ae5763ab143c066000526004601cfd5b3068929eee149b4bd2126855336106c3610fbb565b600b55426005556001600160a01b0381161561070e576106e2816105c2565b6001600160a01b038216600090815260086020908152604080832093909355600b546009909152919020555b600082116107565760405162461bcd60e51b815260206004820152601060248201526f043616e6e6f7420756e7374616b6520360841b60448201526064015b60405180910390fd5b336000908152600760205260409020548211156107b55760405162461bcd60e51b815260206004820152601b60248201527f496e73756666696369656e74207374616b65642062616c616e63650000000000604482015260640161074d565b336000908152600a60205260409020546107d3906202a30090611729565b4210156108225760405162461bcd60e51b815260206004820152601b60248201527f436f6f6c646f776e20706572696f64206e6f7420656c61707365640000000000604482015260640161074d565b816003600082825461083491906116d5565b909155505033600090815260076020526040812080548492906108589084906116d5565b909155505060025460405163a9059cbb60e01b8152336004820152602481018490526001600160a01b039091169063a9059cbb906044016020604051808303816000875af11580156108ae573d6000803e3d6000fd5b505050506040513d601f19601f820116820180604052508101906108d2919061173c565b61091e5760405162461bcd60e51b815260206004820152601760248201527f556e7374616b65207472616e73666572206661696c6564000000000000000000604482015260640161074d565b60405182815233907f0f5bb82176feb1b5e747e28471aa92156a04d9f3ab9f45f28e2d704232b93f75906020015b60405180910390a2503868929eee149b4bd212685550565b3068929eee149b4bd2126854036109835763ab143c066000526004601cfd5b3068929eee149b4bd212685533610998610fbb565b600b55426005556001600160a01b038116156109e3576109b7816105c2565b6001600160a01b038216600090815260086020908152604080832093909355600b546009909152919020555b336000908152600860205260409020548015610b8e576002546040516370a0823160e01b81523060048201526000916001600160a01b0316906370a0823190602401602060405180830381865afa158015610a42573d6000803e3d6000fd5b505050506040513d601f19601f82011682018060405250810190610a66919061175e565b90506000818311610a775782610a79565b815b9050610a8581846116d5565b336000908152600860205260409020558015610b8b5760025460405163a9059cbb60e01b8152336004820152602481018390526001600160a01b039091169063a9059cbb906044016020604051808303816000875af1158015610aec573d6000803e3d6000fd5b505050506040513d601f19601f82011682018060405250810190610b10919061173c565b610b555760405162461bcd60e51b815260206004820152601660248201527514995dd85c99081d1c985b9cd9995c8819985a5b195960521b604482015260640161074d565b60405181815233907fe2403640ba68fed3a2f88b7557551d1993f84b99bb10ff833f0cf8db0c5e04869060200160405180910390a25b50505b50503868929eee149b4bd2126855565b610ba66114f1565b6001600160a01b03166000908152600660205260409020805460ff19166001179055565b63389a75e1600c523360005260006020600c2055337ffa7b8eab7da67f412cc9575ed43464468f9bfbae89d1675917346ca6d8fe3c92600080a2565b610c0e6114f1565b610c18600061150c565b565b3068929eee149b4bd212685403610c395763ab143c066000526004601cfd5b3068929eee149b4bd212685533610c4e610fbb565b600b55426005556001600160a01b03811615610c9957610c6d816105c2565b6001600160a01b038216600090815260086020908152604080832093909355600b546009909152919020555b60008211610cda5760405162461bcd60e51b815260206004820152600e60248201526d043616e6e6f74207374616b6520360941b604482015260640161074d565b8160036000828254610cec9190611729565b90915550503360009081526007602052604081208054849290610d10908490611729565b9091555050336000818152600a60205260409081902042905560025490516323b872dd60e01b81526004810192909252306024830152604482018490526001600160a01b0316906323b872dd906064016020604051808303816000875af1158015610d7f573d6000803e3d6000fd5b505050506040513d601f19601f82011682018060405250810190610da3919061173c565b610de75760405162461bcd60e51b815260206004820152601560248201527414dd185ad9481d1c985b9cd9995c8819985a5b1959605a1b604482015260640161074d565b60405182815233907f9e71bc8eea02a63969f509818f2dafb9254532904319f9dbda79b67bd34a5f3d9060200161094c565b610e216114f1565b6103e8811115610e735760405162461bcd60e51b815260206004820152601760248201527f4665652070657263656e7461676520746f6f2068696768000000000000000000604482015260640161074d565b600155565b610e806114f1565b6001811015610ed15760405162461bcd60e51b815260206004820152601c60248201527f4d617820636f696e73206d757374206265206174206c65617374203100000000604482015260640161074d565b600055565b610ede6114f1565b816001600160a01b031663a9059cbb610efa638b78c6d8195490565b6040516001600160e01b031960e084901b1681526001600160a01b039091166004820152602481018490526044016020604051808303816000875af1158015610f47573d6000803e3d6000fd5b505050506040513d601f19601f82011682018060405250810190610f6b919061173c565b610fb75760405162461bcd60e51b815260206004820152601860248201527f5769746864726177207472616e73666572206661696c65640000000000000000604482015260640161074d565b5050565b6000600354600003610fce5750600b5490565b600354600454600554610fe190426116d5565b610feb91906116e8565b610ffd90670de0b6b3a76400006116e8565b6110079190611715565b600b546110149190611729565b905090565b60003068929eee149b4bd21268540361103a5763ab143c066000526004601cfd5b3068929eee149b4bd21268553361104f610fbb565b600b55426005556001600160a01b0381161561109a5761106e816105c2565b6001600160a01b038216600090815260086020908152604080832093909355600b546009909152919020555b6001600160a01b03831660009081526006602052604090205460ff166110f75760405162461bcd60e51b8152602060048201526012602482015271151bdad95b881b9bdd081858d8d95c1d195960721b604482015260640161074d565b6001851015801561110a57506000548511155b6111565760405162461bcd60e51b815260206004820152601760248201527f496e76616c6964206e756d626572206f6620636f696e73000000000000000000604482015260640161074d565b600184101580156111675750848411155b6111ac5760405162461bcd60e51b8152602060048201526016602482015275125b9d985b1a59081a1958591cc81c995c5d5a5c995960521b604482015260640161074d565b6040516323b872dd60e01b81523360048201523060248201526044810187905283906001600160a01b038216906323b872dd906064016020604051808303816000875af1158015611201573d6000803e3d6000fd5b505050506040513d601f19601f82011682018060405250810190611225919061173c565b6112675760405162461bcd60e51b815260206004820152601360248201527210995d081d1c985b9cd9995c8819985a5b1959606a1b604482015260640161074d565b6000611273878761154a565b90506000811561134157611288898989611595565b60405163a9059cbb60e01b8152336004820152602481018290529091506001600160a01b0384169063a9059cbb906044016020604051808303816000875af11580156112d8573d6000803e3d6000fd5b505050506040513d601f19601f820116820180604052508101906112fc919061173c565b6113415760405162461bcd60e51b815260206004820152601660248201527514185e5bdd5d081d1c985b9cd9995c8819985a5b195960521b604482015260640161074d565b600082611368576127106001548b61135991906116e8565b6113639190611715565b61138d565b600154612710906113798c856116d5565b61138391906116e8565b61138d9190611715565b905080600460008282546113a19190611729565b90915550506040805184151581526020810184905233917f917ed633130aae9351fcee877554607b5d2fa7a5c78c8f8c194b653d362aae22910160405180910390a2826113ef5760006113f9565b6113f98a836116d5565b3868929eee149b4bd21268559a9950505050505050505050565b61141b6114f1565b6001600160a01b03166000908152600660205260409020805460ff19169055565b6114446114f1565b63389a75e1600c52806000526020600c20805442111561146c57636f5e88186000526004601cfd5b600090556114798161150c565b50565b6001600160a01b0381166000908152600a602052604081205481906114a190426116d5565b90506202a30081106114b65750600092915050565b6114c3816202a3006116d5565b9392505050565b6114d26114f1565b8060601b6114e857637448fbae6000526004601cfd5b6114798161150c565b638b78c6d819543314610c18576382b429006000526004601cfd5b638b78c6d81980546001600160a01b039092169182907f8be0079c531659141344cd1fd0a4f28419497f9722a3daafe3b4186f6b6457e0600080a355565b600080805b8481101561158a5760026115638243611729565b61156d9190611777565b600003611582578161157e8161178b565b9250505b60010161154f565b509091111592915050565b6000806115a283856116d5565b6115ad906001611729565b6115b8856002611888565b6115c29190611715565b905060006115d082876116e8565b90506000612710600154836115e591906116e8565b6115ef9190611715565b90506115fb81836116d5565b979650505050505050565b80356001600160a01b038116811461161d57600080fd5b919050565b60006020828403121561163457600080fd5b6114c382611606565b60006020828403121561164f57600080fd5b5035919050565b6000806040838503121561166957600080fd5b61167283611606565b946020939093013593505050565b6000806000806080858703121561169657600080fd5b8435935060208501359250604085013591506116b460608601611606565b905092959194509250565b634e487b7160e01b600052601160045260246000fd5b81810381811115610639576106396116bf565b8082028115828204841417610639576106396116bf565b634e487b7160e01b600052601260045260246000fd5b600082611724576117246116ff565b500490565b80820180821115610639576106396116bf565b60006020828403121561174e57600080fd5b815180151581146114c357600080fd5b60006020828403121561177057600080fd5b5051919050565b600082611786576117866116ff565b500690565b60006001820161179d5761179d6116bf565b5060010190565b600181815b808511156117df5781600019048211156117c5576117c56116bf565b808516156117d257918102915b93841c93908002906117a9565b509250929050565b6000826117f657506001610639565b8161180357506000610639565b816001811461181957600281146118235761183f565b6001915050610639565b60ff841115611834576118346116bf565b50506001821b610639565b5060208310610133831016604e8410600b8410161715611862575081810a610639565b61186c83836117a4565b8060001904821115611880576118806116bf565b029392505050565b60006114c383836117e756fea26469706673582212209fc56b208c67ca93120e700878c5d26fb954fd057df16282ba9656f28e7ee65c64736f6c63430008190033","linkReferences":{}},"methodIdentifiers":{"COOLDOWN_PERIOD()":"6e99d52f","acceptedTokens(address)":"82dc4a05","accumulatedFees()":"587f5ed7","addAcceptedToken(address)":"3eee83f1","cancelOwnershipHandover()":"54d1f13d","completeOwnershipHandover(address)":"f04e283e","earned(address)":"008cc262","feePercentage()":"a001ecdd","flip(uint256,uint256,uint256,address)":"d01ae44c","getReward()":"3d18b912","lastRewardPerTokenPaid(address)":"d2383920","lastStakeTime(address)":"7bb1ca19","lastUpdateTime()":"c8f33c91","maxCoins()":"96ee6919","owner()":"8da5cb5b","ownershipHandoverExpiresAt(address)":"fee81cf4","removeAcceptedToken(address)":"d8134a23","renounceOwnership()":"715018a6","requestOwnershipHandover()":"25692962","rewardPerToken()":"cd3daf9d","rewardPerTokenStored()":"df136d65","rewards(address)":"0700037d","setFeePercentage(uint256)":"ae06c1b7","setMaxCoins(uint256)":"b99a4ea1","stake(uint256)":"a694fc3a","stakedBalances(address)":"1460fa87","stakingToken()":"72f702f3","timeUntilUnstake(address)":"f19d9b8c","totalStaked()":"817b1cd2","transferOwnership(address)":"f2fde38b","unstake(uint256)":"2e17de78","withdrawFunds(address,uint256)":"c1075329"},"id":3}