{"abi":[{"type":"constructor","inputs":[{"name":"_feePercentage","type":"uint256","internalType":"uint256"},{"name":"_vrfProvider","type":"address","internalType":"address"},{"name":"_stakingContract","type":"address","internalType":"address"},{"name":"_useVRF","type":"bool","internalType":"bool"},{"name":"_liquidityEdge","type":"uint256","internalType":"uint256"},{"name":"_manager","type":"address","internalType":"address"},{"name":"_managerWinFeePercentage","type":"uint256","internalType":"uint256"}],"stateMutability":"nonpayable"},{"type":"receive","stateMutability":"payable"},{"type":"function","name":"NUMBERS","inputs":[],"outputs":[{"name":"","type":"uint256","internalType":"uint256"}],"stateMutability":"view"},{"type":"function","name":"acceptedTokens","inputs":[{"name":"","type":"address","internalType":"address"}],"outputs":[{"name":"","type":"bool","internalType":"bool"}],"stateMutability":"view"},{"type":"function","name":"addAcceptedToken","inputs":[{"name":"token","type":"address","internalType":"address"}],"outputs":[],"stateMutability":"nonpayable"},{"type":"function","name":"betTypeMultipliers","inputs":[{"name":"","type":"uint8","internalType":"enum ZaarRoulette.BetType"}],"outputs":[{"name":"","type":"uint256","internalType":"uint256"}],"stateMutability":"view"},{"type":"function","name":"black_numbers","inputs":[{"name":"","type":"uint256","internalType":"uint256"}],"outputs":[{"name":"","type":"uint256","internalType":"uint256"}],"stateMutability":"view"},{"type":"function","name":"cancelOwnershipHandover","inputs":[],"outputs":[],"stateMutability":"payable"},{"type":"function","name":"completeGame","inputs":[{"name":"seed","type":"string","internalType":"string"}],"outputs":[],"stateMutability":"nonpayable"},{"type":"function","name":"completeOwnershipHandover","inputs":[{"name":"pendingOwner","type":"address","internalType":"address"}],"outputs":[],"stateMutability":"payable"},{"type":"function","name":"feePercentage","inputs":[],"outputs":[{"name":"","type":"uint256","internalType":"uint256"}],"stateMutability":"view"},{"type":"function","name":"getBlackNumbersLength","inputs":[],"outputs":[{"name":"","type":"uint256","internalType":"uint256"}],"stateMutability":"view"},{"type":"function","name":"getRedNumbersLength","inputs":[],"outputs":[{"name":"","type":"uint256","internalType":"uint256"}],"stateMutability":"view"},{"type":"function","name":"isGamePending","inputs":[{"name":"","type":"string","internalType":"string"}],"outputs":[{"name":"","type":"bool","internalType":"bool"}],"stateMutability":"view"},{"type":"function","name":"liquidityEdge","inputs":[],"outputs":[{"name":"","type":"uint256","internalType":"uint256"}],"stateMutability":"view"},{"type":"function","name":"manager","inputs":[],"outputs":[{"name":"","type":"address","internalType":"address"}],"stateMutability":"view"},{"type":"function","name":"managerWinFeePercentage","inputs":[],"outputs":[{"name":"","type":"uint256","internalType":"uint256"}],"stateMutability":"view"},{"type":"function","name":"numberMultipliers","inputs":[{"name":"","type":"uint256","internalType":"uint256"}],"outputs":[{"name":"","type":"uint256","internalType":"uint256"}],"stateMutability":"view"},{"type":"function","name":"owner","inputs":[],"outputs":[{"name":"result","type":"address","internalType":"address"}],"stateMutability":"view"},{"type":"function","name":"ownershipHandoverExpiresAt","inputs":[{"name":"pendingOwner","type":"address","internalType":"address"}],"outputs":[{"name":"result","type":"uint256","internalType":"uint256"}],"stateMutability":"view"},{"type":"function","name":"pendingGames","inputs":[{"name":"","type":"string","internalType":"string"}],"outputs":[{"name":"player","type":"address","internalType":"address"},{"name":"totalBetAmount","type":"uint256","internalType":"uint256"},{"name":"token","type":"address","internalType":"address"},{"name":"betsLength","type":"uint256","internalType":"uint256"}],"stateMutability":"view"},{"type":"function","name":"play","inputs":[{"name":"bets","type":"tuple[]","internalType":"struct ZaarRoulette.Bet[]","components":[{"name":"betType","type":"uint8","internalType":"enum ZaarRoulette.BetType"},{"name":"numbers","type":"uint256[]","internalType":"uint256[]"},{"name":"amount","type":"uint256","internalType":"uint256"}]},{"name":"token","type":"address","internalType":"address"}],"outputs":[{"name":"","type":"string","internalType":"string"}],"stateMutability":"nonpayable"},{"type":"function","name":"red_numbers","inputs":[{"name":"","type":"uint256","internalType":"uint256"}],"outputs":[{"name":"","type":"uint256","internalType":"uint256"}],"stateMutability":"view"},{"type":"function","name":"removeAcceptedToken","inputs":[{"name":"token","type":"address","internalType":"address"}],"outputs":[],"stateMutability":"nonpayable"},{"type":"function","name":"renounceOwnership","inputs":[],"outputs":[],"stateMutability":"payable"},{"type":"function","name":"requestOwnershipHandover","inputs":[],"outputs":[],"stateMutability":"payable"},{"type":"function","name":"setBetTypeMultiplier","inputs":[{"name":"betType","type":"uint8","internalType":"enum ZaarRoulette.BetType"},{"name":"multiplier","type":"uint256","internalType":"uint256"}],"outputs":[],"stateMutability":"nonpayable"},{"type":"function","name":"setBlackNumbers","inputs":[{"name":"numbers","type":"uint256[]","internalType":"uint256[]"}],"outputs":[],"stateMutability":"nonpayable"},{"type":"function","name":"setFeePercentage","inputs":[{"name":"_feePercentage","type":"uint256","internalType":"uint256"}],"outputs":[],"stateMutability":"nonpayable"},{"type":"function","name":"setLiquidityEdge","inputs":[{"name":"_liquidityEdge","type":"uint256","internalType":"uint256"}],"outputs":[],"stateMutability":"nonpayable"},{"type":"function","name":"setManager","inputs":[{"name":"_manager","type":"address","internalType":"address"}],"outputs":[],"stateMutability":"nonpayable"},{"type":"function","name":"setManagerWinFeePercentage","inputs":[{"name":"_managerWinFeePercentage","type":"uint256","internalType":"uint256"}],"outputs":[],"stateMutability":"nonpayable"},{"type":"function","name":"setRedNumbers","inputs":[{"name":"numbers","type":"uint256[]","internalType":"uint256[]"}],"outputs":[],"stateMutability":"nonpayable"},{"type":"function","name":"stakingContract","inputs":[],"outputs":[{"name":"","type":"address","internalType":"contract ZaarStaking"}],"stateMutability":"view"},{"type":"function","name":"toggleRandomness","inputs":[{"name":"_useVRF","type":"bool","internalType":"bool"}],"outputs":[],"stateMutability":"nonpayable"},{"type":"function","name":"transferOwnership","inputs":[{"name":"newOwner","type":"address","internalType":"address"}],"outputs":[],"stateMutability":"payable"},{"type":"function","name":"useVRF","inputs":[],"outputs":[{"name":"","type":"bool","internalType":"bool"}],"stateMutability":"view"},{"type":"function","name":"vrfConsumers","inputs":[{"name":"","type":"address","internalType":"address"}],"outputs":[{"name":"","type":"address","internalType":"address"}],"stateMutability":"view"},{"type":"function","name":"vrfProvider","inputs":[],"outputs":[{"name":"","type":"address","internalType":"address"}],"stateMutability":"view"},{"type":"event","name":"GameCreated","inputs":[{"name":"gameId","type":"string","indexed":true,"internalType":"string"},{"name":"player","type":"address","indexed":true,"internalType":"address"},{"name":"totalBetAmount","type":"uint256","indexed":false,"internalType":"uint256"},{"name":"token","type":"address","indexed":false,"internalType":"address"}],"anonymous":false},{"type":"event","name":"GameResult","inputs":[{"name":"player","type":"address","indexed":true,"internalType":"address"},{"name":"winningNumber","type":"uint256","indexed":false,"internalType":"uint256"},{"name":"payout","type":"uint256","indexed":false,"internalType":"uint256"}],"anonymous":false},{"type":"event","name":"OwnershipHandoverCanceled","inputs":[{"name":"pendingOwner","type":"address","indexed":true,"internalType":"address"}],"anonymous":false},{"type":"event","name":"OwnershipHandoverRequested","inputs":[{"name":"pendingOwner","type":"address","indexed":true,"internalType":"address"}],"anonymous":false},{"type":"event","name":"OwnershipTransferred","inputs":[{"name":"oldOwner","type":"address","indexed":true,"internalType":"address"},{"name":"newOwner","type":"address","indexed":true,"internalType":"address"}],"anonymous":false},{"type":"event","name":"RandomnessRequested","inputs":[{"name":"seed","type":"string","indexed":false,"internalType":"string"}],"anonymous":false},{"type":"event","name":"RandomnessToggled","inputs":[{"name":"useVRF","type":"bool","indexed":false,"internalType":"bool"}],"anonymous":false},{"type":"error","name":"AlreadyInitialized","inputs":[]},{"type":"error","name":"NewOwnerIsZeroAddress","inputs":[]},{"type":"error","name":"NoHandoverRequest","inputs":[]},{"type":"error","name":"Reentrancy","inputs":[]},{"type":"error","name":"Unauthorized","inputs":[]}],"bytecode":{"object":"0x6102c060405260016080908152600360a052600560c052600760e052600961010052600c61012052600e61014052601061016052601261018081905260136101a05260156101c05260176101e052601961020052601b61022052601e6102405260206102605260226102805260246102a05261007d916000916104b7565b506040805161024081018252600281526004602082015260069181019190915260086060820152600a6080820152600b60a0820152600d60c0820152600f60e08201526011610100820152601461012082015260166101408201526018610160820152601a610180820152601c6101a0820152601d6101c0820152601f6101e08201526021610200820152602361022082015261011e9060019060126104b7565b5034801561012b57600080fd5b506040516140ff3803806140ff83398101604081905261014a91610538565b6101533361047b565b6002878155600680546001600160a01b038981166001600160a01b03199283161790925560078054898416908316179055600580546003888155938716891515600160a01b029093166001600160a81b03199091161791909117905560048390556009602081905260237fec8156718a8372b1db44bb411437d0870f3e3790d4a08526d024ce1b0b668f6b5560117f92e85d02570a8092d09a6e3a57665bc3815a2699a4074001bf1ccabf660f5a36556000928352600b7f6cde3cea4b3a3fb2488b2808bae7556f4a405e50f65e1794383bc026131b13c3556008929091600c811115610242576102426105b7565b8152602001908152602001600020819055506005600960006004600c81111561026d5761026d6105b7565b600c81111561027e5761027e6105b7565b8152602001908152602001600020819055506002600960006005600c8111156102a9576102a96105b7565b600c8111156102ba576102ba6105b7565b8152602001908152602001600020819055506002600960006006600c8111156102e5576102e56105b7565b600c8111156102f6576102f66105b7565b8152602001908152602001600020819055506001600960006007600c811115610321576103216105b7565b600c811115610332576103326105b7565b8152602001908152602001600020819055506001600960006008600c81111561035d5761035d6105b7565b600c81111561036e5761036e6105b7565b8152602001908152602001600020819055506001600960006009600c811115610399576103996105b7565b600c8111156103aa576103aa6105b7565b815260200190815260200160002081905550600160096000600a600c8111156103d5576103d56105b7565b600c8111156103e6576103e66105b7565b815260200190815260200160002081905550600160096000600b600c811115610411576104116105b7565b600c811115610422576104226105b7565b815260200190815260200160002081905550600160096000600c8081111561044c5761044c6105b7565b600c81111561045d5761045d6105b7565b815260200190815260200160002081905550505050505050506105cd565b6001600160a01b0316638b78c6d8198190558060007f8be0079c531659141344cd1fd0a4f28419497f9722a3daafe3b4186f6b6457e08180a350565b8280548282559060005260206000209081019282156104f7579160200282015b828111156104f7578251829060ff169055916020019190600101906104d7565b50610503929150610507565b5090565b5b808211156105035760008155600101610508565b80516001600160a01b038116811461053357600080fd5b919050565b600080600080600080600060e0888a03121561055357600080fd5b875196506105636020890161051c565b95506105716040890161051c565b94506060880151801515811461058657600080fd5b6080890151909450925061059c60a0890161051c565b9150600060c089015190508091505092959891949750929550565b634e487b7160e01b600052602160045260246000fd5b613b23806105dc6000396000f3fe60806040526004361061021e5760003560e01c8063861761ff11610123578063d25d324a116100ab578063ee99205c1161006f578063ee99205c146106b2578063f04e283e146106d2578063f2fde38b146106e5578063f60d7046146106f8578063fee81cf41461071857600080fd5b8063d25d324a14610612578063d8134a2314610632578063de56a36614610652578063e1470b4514610672578063e2b04d3f1461069257600080fd5b8063a001ecdd116100f2578063a001ecdd1461050c578063a00cc77514610522578063a9271a1a14610542578063ae06c1b7146105d2578063d0ebdbe7146105f257600080fd5b8063861761ff146104835780638947aae2146104be57806389930d43146104de5780638da5cb5b146104f357600080fd5b80633792f3f1116101a6578063481c6a7511610175578063481c6a75146103f657806354d1f13d146104165780635b88cbb21461041e578063715018a61461044b57806382dc4a051461045357600080fd5b80633792f3f11461035d5780633eee83f114610372578063416467ce14610392578063464e530c146103a857600080fd5b80631c7ef6c5116101ed5780631c7ef6c5146102d257806325692962146102e8578063298f22df146102f0578063318f427b1461031d57806336a1dd0c1461033d57600080fd5b806303265fec1461022a578063060383411461024c5780630a3ce834146102825780631567d536146102bd57600080fd5b3661022557005b600080fd5b34801561023657600080fd5b5061024a610245366004612e64565b61074b565b005b34801561025857600080fd5b5060055461026d90600160a01b900460ff1681565b60405190151581526020015b60405180910390f35b34801561028e57600080fd5b506102af61029d366004612eb2565b60096020526000908152604090205481565b604051908152602001610279565b3480156102c957600080fd5b506001546102af565b3480156102de57600080fd5b506102af60045481565b61024a610923565b3480156102fc57600080fd5b5061031061030b366004612eeb565b610972565b6040516102799190612f62565b34801561032957600080fd5b5061024a610338366004612f95565b6110fb565b34801561034957600080fd5b506102af610358366004613007565b6112c4565b34801561036957600080fd5b506000546102af565b34801561037e57600080fd5b5061024a61038d366004613020565b6112e5565b34801561039e57600080fd5b506102af60035481565b3480156103b457600080fd5b506103de6103c3366004613020565b600b602052600090815260409020546001600160a01b031681565b6040516001600160a01b039091168152602001610279565b34801561040257600080fd5b506005546103de906001600160a01b031681565b61024a611311565b34801561042a57600080fd5b506102af610439366004613007565b60086020526000908152604090205481565b61024a61134d565b34801561045f57600080fd5b5061026d61046e366004613020565b600a6020526000908152604090205460ff1681565b34801561048f57600080fd5b5061026d61049e3660046130a9565b8051602081830181018051600d8252928201919093012091525460ff1681565b3480156104ca57600080fd5b5061024a6104d9366004612e64565b611361565b3480156104ea57600080fd5b506102af602581565b3480156104ff57600080fd5b50638b78c6d819546103de565b34801561051857600080fd5b506102af60025481565b34801561052e57600080fd5b5061024a61053d36600461314f565b611530565b34801561054e57600080fd5b5061059d61055d3660046130a9565b8051602081830181018051600c8252928201919093012091528054600182015460028301546004909301546001600160a01b039283169391929091169084565b60405161027994939291906001600160a01b039485168152602081019390935292166040820152606081019190915260800190565b3480156105de57600080fd5b5061024a6105ed366004613007565b611590565b3480156105fe57600080fd5b5061024a61060d366004613020565b6115ef565b34801561061e57600080fd5b5061024a61062d366004613007565b61166f565b34801561063e57600080fd5b5061024a61064d366004613020565b6116ce565b34801561065e57600080fd5b5061024a61066d366004613007565b6116f7565b34801561067e57600080fd5b5061024a61068d36600461316c565b611762565b34801561069e57600080fd5b506102af6106ad366004613007565b6117a7565b3480156106be57600080fd5b506007546103de906001600160a01b031681565b61024a6106e0366004613020565b6117b7565b61024a6106f3366004613020565b6117f7565b34801561070457600080fd5b506006546103de906001600160a01b031681565b34801561072457600080fd5b506102af610733366004613020565b63389a75e1600c908152600091909152602090205490565b61075361181e565b8061079f5760405162461bcd60e51b8152602060048201526017602482015276115b5c1d1e48185c9c985e481b9bdd08185b1b1bddd959604a1b60448201526064015b60405180910390fd5b60005b818110156108c95760258383838181106107be576107be613198565b905060200201351080156107ea575060008383838181106107e1576107e1613198565b90506020020135115b6108275760405162461bcd60e51b815260206004820152600e60248201526d24b73b30b634b210373ab6b132b960911b6044820152606401610796565b60005b6001548110156108c0576001818154811061084757610847613198565b906000526020600020015484848481811061086457610864613198565b90506020020135036108b85760405162461bcd60e51b815260206004820152601f60248201527f4e756d62657220616c726561647920696e20626c61636b5f6e756d62657273006044820152606401610796565b60010161082a565b506001016107a2565b506108d5600080612dd5565b60005b8181101561091e5760008383838181106108f4576108f4613198565b835460018082018655600095865260209586902092909502939093013592019190915550016108d8565b505050565b60006202a3006001600160401b03164201905063389a75e1600c5233600052806020600c2055337fdbf36a107da19e49527a7176a1babf963b4b0ff8cde35ee35d6cd8f1f9ac7e1d600080a250565b60603068929eee149b4bd2126854036109935763ab143c066000526004601cfd5b3068929eee149b4bd21268556001600160a01b0382166000908152600a602052604090205460ff166109fc5760405162461bcd60e51b8152602060048201526012602482015271151bdad95b881b9bdd081858d8d95c1d195960721b6044820152606401610796565b82610a3a5760405162461bcd60e51b815260206004820152600e60248201526d139bc818995d1cc81c1b1858d95960921b6044820152606401610796565b60008060005b85811015610ba457610a7d878783818110610a5d57610a5d613198565b9050602002810190610a6f91906131ae565b610a78906131ce565b611839565b610ab75760405162461bcd60e51b815260206004820152600b60248201526a125b9d985b1a590818995d60aa1b6044820152606401610796565b868682818110610ac957610ac9613198565b9050602002810190610adb91906131ae565b610ae99060400135846132ba565b925060096000888884818110610b0157610b01613198565b9050602002810190610b1391906131ae565b610b21906020810190612eb2565b600c811115610b3257610b326132cd565b600c811115610b4357610b436132cd565b8152602001908152602001600020546001610b5e91906132ba565b878783818110610b7057610b70613198565b9050602002810190610b8291906131ae565b60400135610b9091906132e3565b610b9a90836132ba565b9150600101610a40565b506007546040516370a0823160e01b81526001600160a01b03918216600482015282918616906370a0823190602401602060405180830381865afa158015610bf0573d6000803e3d6000fd5b505050506040513d601f19601f82011682018060405250810190610c1491906132fa565b1015610c745760405162461bcd60e51b815260206004820152602960248201527f496e73756666696369656e742062616c616e636520666f7220706f74656e7469604482015268185b081c185e5bdd5d60ba1b6064820152608401610796565b6040516323b872dd60e01b81523360048201523060248201526044810183905284906001600160a01b038216906323b872dd906064016020604051808303816000875af1158015610cc9573d6000803e3d6000fd5b505050506040513d601f19601f82011682018060405250810190610ced9190613313565b610d2f5760405162461bcd60e51b815260206004820152601360248201527210995d081d1c985b9cd9995c8819985a5b1959606a1b6044820152606401610796565b6040516bffffffffffffffffffffffff193360601b1660208201524260348201526054810184905260009060740160408051601f19818403018152828252805160209182012090830181905292506000910160405160208183030381529060405290506000600c82604051610da49190613330565b90815260405190819003602001902080546001600160a01b031990811633178255600182018890556002820180546001600160a01b038c169216919091179055600481018a9055905060005b89811015610e40578a8a82818110610e0a57610e0a613198565b9050602002810190610e1c91906131ae565b60008281526003840160205260409020610e3682826133d2565b5050600101610df0565b506001600d83604051610e539190613330565b908152604051908190036020019020805491151560ff19909216919091179055600554600160a01b900460ff161561108057336000908152600b60205260409020546001600160a01b0316610f21576006546040516001600160a01b03909116903090610ebf90612df3565b6001600160a01b03928316815291166020820152604001604051809103906000f080158015610ef2573d6000803e3d6000fd5b50336000908152600b6020526040902080546001600160a01b0319166001600160a01b03929092169190911790555b336000908152600b6020908152604091829020548251632669c66160e11b815292516001600160a01b03909116928392634cd38cc2926004808401938290030181865afa158015610f76573d6000803e3d6000fd5b505050506040513d601f19601f82011682018060405250810190610f9a9190613313565b15610fdc5760405162461bcd60e51b815260206004820152601260248201527156524620726573756c742070656e64696e6760701b6044820152606401610796565b60405163691d91b760e01b81526001600160a01b0382169063691d91b790662386f26fc1000090611011908790600401612f62565b6000604051808303818588803b15801561102a57600080fd5b505af115801561103e573d6000803e3d6000fd5b50505050507f86aeeec7fd53de43bcfe0d367dd94edc30ed5ec4e1bc6b4ff193aee3ee7a6708836040516110729190612f62565b60405180910390a15061108a565b61108a8242611b0f565b604051339061109a908490613330565b604080519182900382208983526001600160a01b038c166020840152917f9b6f839a427b11df893ecf08edef782b8e54ee26385550bbbf4a69f1ef31be32910160405180910390a3503868929eee149b4bd212685598975050505050505050565b600082828080601f01602080910402602001604051908101604052809392919081815260200183838082843760009201919091525050604051929350600d926111479250849150613330565b9081526040519081900360200190205460ff166111a65760405162461bcd60e51b815260206004820152601d60248201527f4e6f2070656e64696e672067616d6520666f72207468697320736565640000006044820152606401610796565b6000600c826040516111b89190613330565b908152604080516020928190038301902080546001600160a01b039081166000908152600b90945291909220549192501633146112475760405162461bcd60e51b815260206004820152602760248201527f43616c6c6572206973206e6f742074686520706c61796572277320565246206360448201526637b739bab6b2b960c91b6064820152608401610796565b60003390506000816001600160a01b0316637390c7866040518163ffffffff1660e01b8152600401602060405180830381865afa15801561128c573d6000803e3d6000fd5b505050506040513d601f19601f820116820180604052508101906112b091906132fa565b90506112bc8482611b0f565b505050505050565b600181815481106112d457600080fd5b600091825260209091200154905081565b6112ed61181e565b6001600160a01b03166000908152600a60205260409020805460ff19166001179055565b63389a75e1600c523360005260006020600c2055337ffa7b8eab7da67f412cc9575ed43464468f9bfbae89d1675917346ca6d8fe3c92600080a2565b61135561181e565b61135f6000612251565b565b61136961181e565b806113b05760405162461bcd60e51b8152602060048201526017602482015276115b5c1d1e48185c9c985e481b9bdd08185b1b1bddd959604a1b6044820152606401610796565b60005b818110156114da5760258383838181106113cf576113cf613198565b905060200201351080156113fb575060008383838181106113f2576113f2613198565b90506020020135115b6114385760405162461bcd60e51b815260206004820152600e60248201526d24b73b30b634b210373ab6b132b960911b6044820152606401610796565b60005b6000548110156114d1576000818154811061145857611458613198565b906000526020600020015484848481811061147557611475613198565b90506020020135036114c95760405162461bcd60e51b815260206004820152601d60248201527f4e756d62657220616c726561647920696e207265645f6e756d626572730000006044820152606401610796565b60010161143b565b506001016113b3565b506114e760016000612dd5565b60005b8181101561091e57600183838381811061150657611506613198565b835460018082018655600095865260209586902092909502939093013592019190915550016114ea565b61153861181e565b60058054821515600160a01b0260ff60a01b199091161790556040517f5d891c3ae17c2a8b9790a44e4746f5a60ca85fc5ea1bd98eb7bf347d5b6a0b239061158590831515815260200190565b60405180910390a150565b61159861181e565b6103e88111156115ea5760405162461bcd60e51b815260206004820152601760248201527f4665652070657263656e7461676520746f6f20686967680000000000000000006044820152606401610796565b600255565b6115f761181e565b6001600160a01b03811661164d5760405162461bcd60e51b815260206004820152601760248201527f496e76616c6964206d616e6167657220616464726573730000000000000000006044820152606401610796565b600580546001600160a01b0319166001600160a01b0392909216919091179055565b61167761181e565b6103e88111156116c95760405162461bcd60e51b815260206004820152601760248201527f4c6971756964697479206564676520746f6f20686967680000000000000000006044820152606401610796565b600355565b6116d661181e565b6001600160a01b03166000908152600a60205260409020805460ff19169055565b6116ff61181e565b61271081111561175d5760405162461bcd60e51b815260206004820152602360248201527f4d616e616765722077696e206665652070657263656e7461676520746f6f20686044820152620d2ced60eb1b6064820152608401610796565b600455565b61176a61181e565b806009600084600c811115611781576117816132cd565b600c811115611792576117926132cd565b81526020810191909152604001600020555050565b600081815481106112d457600080fd5b6117bf61181e565b63389a75e1600c52806000526020600c2080544211156117e757636f5e88186000526004601cfd5b600090556117f481612251565b50565b6117ff61181e565b8060601b61181557637448fbae6000526004601cfd5b6117f481612251565b638b78c6d81954331461135f576382b429006000526004601cfd5b6000816040015160000361184f57506000919050565b60008251600c811115611864576118646132cd565b036118a257816020015151600114801561189c57506025826020015160008151811061189257611892613198565b6020026020010151105b92915050565b60018251600c8111156118b7576118b76132cd565b03611917578160200151516002146118d157506000919050565b61189c82602001516000815181106118eb576118eb613198565b6020026020010151836020015160018151811061190a5761190a613198565b602002602001015161228f565b60028251600c81111561192c5761192c6132cd565b036119535781602001515160031461194657506000919050565b61189c8260200151612354565b60038251600c811115611968576119686132cd565b0361198f5781602001515160041461198257506000919050565b61189c8260200151612530565b60048251600c8111156119a4576119a46132cd565b036119cb578160200151516006146119be57506000919050565b61189c826020015161270b565b60058251600c8111156119e0576119e06132cd565b03611a0e57816020015151600114801561189c57506003826020015160008151811061189257611892613198565b60068251600c811115611a2357611a236132cd565b03611a5157816020015151600114801561189c57506003826020015160008151811061189257611892613198565b60078251600c811115611a6657611a666132cd565b1480611a84575060088251600c811115611a8257611a826132cd565b145b80611aa1575060098251600c811115611a9f57611a9f6132cd565b145b80611abe5750600a8251600c811115611abc57611abc6132cd565b145b80611adb5750600b8251600c811115611ad957611ad96132cd565b145b80611af85750600c8251600c811115611af657611af66132cd565b145b15611b07575060200151511590565b506000919050565b600d82604051611b1f9190613330565b9081526040519081900360200190205460ff16611b715760405162461bcd60e51b815260206004820152601060248201526f47616d65206e6f742070656e64696e6760801b6044820152606401610796565b6000600c83604051611b839190613330565b90815260405190819003602001902090506000611ba1602584613487565b90506000805b8360040154811015611ce35760008181526003850160205260409081902081516060810190925280549091611c6b918390829060ff16600c811115611bee57611bee6132cd565b600c811115611bff57611bff6132cd565b815260200160018201805480602002602001604051908101604052809291908181526020018280548015611c5257602002820191906000526020600020905b815481526020019060010190808311611c3e575b50505050508152602001600282015481525050856129b9565b15611cda578054600090600990829060ff16600c811115611c8e57611c8e6132cd565b600c811115611c9f57611c9f6132cd565b8152602001908152602001600020549050806001611cbd91906132ba565b8260020154611ccc91906132e3565b611cd690856132ba565b9350505b50600101611ba7565b508015611fc0576000612710600254856001015484611d02919061349b565b611d0c91906132e3565b611d1691906134ae565b9050600061271060045483611d2b91906132e3565b611d3591906134ae565b90506000611d43828461349b565b90506000611d51848661349b565b6007546002890154895460405163a91f283360e01b81526001600160a01b039283166004820152908216602482015260448101849052929350169063a91f2833906064016020604051808303816000875af1158015611db4573d6000803e3d6000fd5b505050506040513d601f19601f82011682018060405250810190611dd89190613313565b611e1d5760405162461bcd60e51b815260206004820152601660248201527514185e5bdd5d081d1c985b9cd9995c8819985a5b195960521b6044820152606401610796565b8215611eea57600287015460055460405163a9059cbb60e01b81526001600160a01b0391821660048201526024810186905291169063a9059cbb906044016020604051808303816000875af1158015611e7a573d6000803e3d6000fd5b505050506040513d601f19601f82011682018060405250810190611e9e9190613313565b611eea5760405162461bcd60e51b815260206004820152601b60248201527f4d616e6167657220666565207472616e73666572206661696c656400000000006044820152606401610796565b8115611fb757600287015460075460405163a9059cbb60e01b81526001600160a01b0391821660048201526024810185905291169063a9059cbb906044016020604051808303816000875af1158015611f47573d6000803e3d6000fd5b505050506040513d601f19601f82011682018060405250810190611f6b9190613313565b611fb75760405162461bcd60e51b815260206004820152601b60248201527f5374616b696e6720666565207472616e73666572206661696c656400000000006044820152606401610796565b50505050612194565b60006127106003548560010154611fd791906132e3565b611fe191906134ae565b90506000818560010154611ff5919061349b565b905081156120c457600285015460055460405163a9059cbb60e01b81526001600160a01b0391821660048201526024810185905291169063a9059cbb906044016020604051808303816000875af1158015612054573d6000803e3d6000fd5b505050506040513d601f19601f820116820180604052508101906120789190613313565b6120c45760405162461bcd60e51b815260206004820152601e60248201527f4c69717569646974792065646765207472616e73666572206661696c656400006044820152606401610796565b801561219157600285015460075460405163a9059cbb60e01b81526001600160a01b0391821660048201526024810184905291169063a9059cbb906044016020604051808303816000875af1158015612121573d6000803e3d6000fd5b505050506040513d601f19601f820116820180604052508101906121459190613313565b6121915760405162461bcd60e51b815260206004820152601e60248201527f5374616b696e6720616d6f756e74207472616e73666572206661696c656400006044820152606401610796565b50505b825460408051848152602081018490526001600160a01b03909216917f761bbf8ad882003774e8650d36faa00fdea1a75836949dfb7eb6ac36fe29505c910160405180910390a2600c856040516121eb9190613330565b90815260405190819003602001812080546001600160a01b03199081168255600060018301819055600283018054909216909155600490910155600d90612233908790613330565b908152604051908190036020019020805460ff191690555050505050565b638b78c6d81980546001600160a01b039092169182907f8be0079c531659141344cd1fd0a4f28419497f9722a3daafe3b4186f6b6457e0600080a355565b60006025831015806122a2575060258210155b156122af5750600061189c565b8215806122ba575081155b156122c75750600061189c565b818311156122d3579091905b6122de8360016132ba565b82148015612317575060036122f460018461349b565b6122fe91906134ae565b600361230b60018661349b565b61231591906134ae565b145b156123245750600161189c565b61232f8360036132ba565b8214801561233e575060248211155b1561234b5750600161189c565b50600092915050565b6000805b60018351612366919061349b565b81101561246a5760005b600182855161237f919061349b565b612389919061349b565b811015612461578361239c8260016132ba565b815181106123ac576123ac613198565b60200260200101518482815181106123c6576123c6613198565b6020026020010151111561245957836123e08260016132ba565b815181106123f0576123f0613198565b602002602001015184828151811061240a5761240a613198565b602002602001015185838151811061242457612424613198565b602002602001018684600161243991906132ba565b8151811061244957612449613198565b6020908102919091010191909152525b600101612370565b50600101612358565b5060038260008151811061248057612480613198565b60200260200101516124929190613487565b60011480156124e05750816000815181106124af576124af613198565b602002602001015160016124c391906132ba565b826001815181106124d6576124d6613198565b6020026020010151145b801561189c5750816001815181106124fa576124fa613198565b6020026020010151600161250e91906132ba565b8260028151811061252157612521613198565b60200260200101511492915050565b6000805b60018351612542919061349b565b8110156126465760005b600182855161255b919061349b565b612565919061349b565b81101561263d57836125788260016132ba565b8151811061258857612588613198565b60200260200101518482815181106125a2576125a2613198565b6020026020010151111561263557836125bc8260016132ba565b815181106125cc576125cc613198565b60200260200101518482815181106125e6576125e6613198565b602002602001015185838151811061260057612600613198565b602002602001018684600161261591906132ba565b8151811061262557612625613198565b6020908102919091010191909152525b60010161254c565b50600101612534565b5060008260008151811061265c5761265c613198565b602002602001015190506003816126739190613487565b6002141580156126a657506126898160016132ba565b8360018151811061269c5761269c613198565b6020026020010151145b80156126d557506126b88160036132ba565b836002815181106126cb576126cb613198565b6020026020010151145b801561270457506126e78160046132ba565b836003815181106126fa576126fa613198565b6020026020010151145b9392505050565b6000805b6001835161271d919061349b565b8110156128215760005b6001828551612736919061349b565b612740919061349b565b81101561281857836127538260016132ba565b8151811061276357612763613198565b602002602001015184828151811061277d5761277d613198565b6020026020010151111561281057836127978260016132ba565b815181106127a7576127a7613198565b60200260200101518482815181106127c1576127c1613198565b60200260200101518583815181106127db576127db613198565b60200260200101868460016127f091906132ba565b8151811061280057612800613198565b6020908102919091010191909152525b600101612727565b5060010161270f565b5060038260008151811061283757612837613198565b60200260200101516128499190613487565b600114801561289757508160008151811061286657612866613198565b6020026020010151600161287a91906132ba565b8260018151811061288d5761288d613198565b6020026020010151145b80156128e25750816001815181106128b1576128b1613198565b602002602001015160016128c591906132ba565b826002815181106128d8576128d8613198565b6020026020010151145b801561292d5750816000815181106128fc576128fc613198565b6020026020010151600361291091906132ba565b8260038151811061292357612923613198565b6020026020010151145b801561297857508160038151811061294757612947613198565b6020026020010151600161295b91906132ba565b8260048151811061296e5761296e613198565b6020026020010151145b801561189c57508160048151811061299257612992613198565b602002602001015160016129a691906132ba565b8260058151811061252157612521613198565b6000808351600c8111156129cf576129cf6132cd565b036129fc578183602001516000815181106129ec576129ec613198565b602002602001015114905061189c565b60018351600c811115612a1157612a116132cd565b03612a66578260200151600081518110612a2d57612a2d613198565b6020026020010151821480612a5f57508260200151600181518110612a5457612a54613198565b602002602001015182145b905061189c565b60028351600c811115612a7b57612a7b6132cd565b03612ad05760005b836020015151811015612ac65783602001518181518110612aa657612aa6613198565b60200260200101518303612abe57600191505061189c565b600101612a83565b506000905061189c565b60038351600c811115612ae557612ae56132cd565b03612b305760005b836020015151811015612ac65783602001518181518110612b1057612b10613198565b60200260200101518303612b2857600191505061189c565b600101612aed565b60048351600c811115612b4557612b456132cd565b03612b905760005b836020015151811015612ac65783602001518181518110612b7057612b70613198565b60200260200101518303612b8857600191505061189c565b600101612b4d565b60058351600c811115612ba557612ba56132cd565b03612bfe5781600003612bba5750600061189c565b60006003612bc960018561349b565b612bd39190613487565b90508360200151600081518110612bec57612bec613198565b6020026020010151811491505061189c565b60068351600c811115612c1357612c136132cd565b03612c415781600003612c285750600061189c565b6000600c612c3760018561349b565b612bd391906134ae565b60078351600c811115612c5657612c566132cd565b03612c6457612a5f82612d4f565b60088351600c811115612c7957612c796132cd565b03612c8757612a5f82612d92565b60098351600c811115612c9c57612c9c6132cd565b03612cbe578115801590612a5f5750612cb6600283613487565b15905061189c565b600a8351600c811115612cd357612cd36132cd565b03612ced57612ce3600283613487565b600114905061189c565b600b8351600c811115612d0257612d026132cd565b03612d1e5760018210158015612a5f575050601281111561189c565b600c8351600c811115612d3357612d336132cd565b0361234b5760138210158015612a5f575050602481111561189c565b6000805b60005481101561234b578260008281548110612d7157612d71613198565b906000526020600020015403612d8a5750600192915050565b600101612d53565b6000805b60015481101561234b578260018281548110612db457612db4613198565b906000526020600020015403612dcd5750600192915050565b600101612d96565b50805460008255906000526020600020908101906117f49190612e00565b61062b806134c383390190565b5b80821115612e155760008155600101612e01565b5090565b60008083601f840112612e2b57600080fd5b5081356001600160401b03811115612e4257600080fd5b6020830191508360208260051b8501011115612e5d57600080fd5b9250929050565b60008060208385031215612e7757600080fd5b82356001600160401b03811115612e8d57600080fd5b612e9985828601612e19565b90969095509350505050565b600d81106117f457600080fd5b600060208284031215612ec457600080fd5b813561270481612ea5565b80356001600160a01b0381168114612ee657600080fd5b919050565b600080600060408486031215612f0057600080fd5b83356001600160401b03811115612f1657600080fd5b612f2286828701612e19565b9094509250612f35905060208501612ecf565b90509250925092565b60005b83811015612f59578181015183820152602001612f41565b50506000910152565b6020815260008251806020840152612f81816040850160208701612f3e565b601f01601f19169190910160400192915050565b60008060208385031215612fa857600080fd5b82356001600160401b03811115612fbe57600080fd5b8301601f81018513612fcf57600080fd5b80356001600160401b03811115612fe557600080fd5b856020828401011115612ff757600080fd5b6020919091019590945092505050565b60006020828403121561301957600080fd5b5035919050565b60006020828403121561303257600080fd5b61270482612ecf565b634e487b7160e01b600052604160045260246000fd5b604051606081016001600160401b03811182821017156130735761307361303b565b60405290565b604051601f8201601f191681016001600160401b03811182821017156130a1576130a161303b565b604052919050565b6000602082840312156130bb57600080fd5b81356001600160401b038111156130d157600080fd5b8201601f810184136130e257600080fd5b80356001600160401b038111156130fb576130fb61303b565b61310e601f8201601f1916602001613079565b81815285602083850101111561312357600080fd5b81602084016020830137600091810160200191909152949350505050565b80151581146117f457600080fd5b60006020828403121561316157600080fd5b813561270481613141565b6000806040838503121561317f57600080fd5b823561318a81612ea5565b946020939093013593505050565b634e487b7160e01b600052603260045260246000fd5b60008235605e198336030181126131c457600080fd5b9190910192915050565b6000606082360312156131e057600080fd5b6131e8613051565b82356131f381612ea5565b815260208301356001600160401b0381111561320e57600080fd5b830136601f82011261321f57600080fd5b80356001600160401b038111156132385761323861303b565b8060051b61324860208201613079565b9182526020818401810192908101903684111561326457600080fd5b6020850194505b8385101561328a5784358083526020958601959093509091019061326b565b602086015250505050604092830135928101929092525090565b634e487b7160e01b600052601160045260246000fd5b8082018082111561189c5761189c6132a4565b634e487b7160e01b600052602160045260246000fd5b808202811582820484141761189c5761189c6132a4565b60006020828403121561330c57600080fd5b5051919050565b60006020828403121561332557600080fd5b815161270481613141565b600082516131c4818460208701612f3e565b6001600160401b038311156133595761335961303b565b680100000000000000008311156133725761337261303b565b8054838255808410156133a9576000828152602090208481019082015b808210156133a6576000825560018201915061338f565b50505b5060008181526020812083915b858110156112bc578235828201556020909201916001016133b6565b81356133dd81612ea5565b600d81106133fb57634e487b7160e01b600052602160045260246000fd5b60ff1982541660ff82168117835550506020820135601e1983360301811261342257600080fd5b820180356001600160401b0381111561343a57600080fd5b6020820191508060051b360382131561345257600080fd5b613460818360018601613342565b505060409190910135600290910155565b634e487b7160e01b600052601260045260246000fd5b60008261349657613496613471565b500690565b8181038181111561189c5761189c6132a4565b6000826134bd576134bd613471565b50049056fe6080604052348015600f57600080fd5b5060405161062b38038061062b833981016040819052602c916085565b600080546001600160a01b039384166001600160a01b0319909116179055600380549190921661010002610100600160a81b031990911617905560b3565b80516001600160a01b0381168114608057600080fd5b919050565b60008060408385031215609757600080fd5b609e83606a565b915060aa60208401606a565b90509250929050565b610569806100c26000396000f3fe60806040526004361061007b5760003560e01c8063691d91b71161004e578063691d91b71461012d5780637390c786146101405780638da5cb5b14610155578063ddd518901461017a57600080fd5b8063085d488314610080578063159b97ff146100bd5780633b5cd3a8146100df5780634cd38cc214610103575b600080fd5b34801561008c57600080fd5b506000546100a0906001600160a01b031681565b6040516001600160a01b0390911681526020015b60405180910390f35b3480156100c957600080fd5b506100dd6100d8366004610458565b610190565b005b3480156100eb57600080fd5b506100f560025481565b6040519081526020016100b4565b34801561010f57600080fd5b5060035461011d9060ff1681565b60405190151581526020016100b4565b6100dd61013b3660046104c2565b6102a7565b34801561014c57600080fd5b506100f56103b3565b34801561016157600080fd5b506003546100a09061010090046001600160a01b031681565b34801561018657600080fd5b506100f560015481565b6000546001600160a01b031633146101ef5760405162461bcd60e51b815260206004820152601a60248201527f43616c6c6572206973206e6f74207468652070726f766964657200000000000060448201526064015b60405180910390fd5b600181815560028290556003805460ff191690911790556040518181527f4f1c1f41b1b5367d1035d73565ae9cdf3ae0b102b122e492959d3bbd0c3a87769060200160405180910390a160035460405163318f427b60e01b81526101009091046001600160a01b03169063318f427b9061026f9087908790600401610504565b600060405180830381600087803b15801561028957600080fd5b505af115801561029d573d6000803e3d6000fd5b5050505050505050565b60035461010090046001600160a01b031633146103105760405162461bcd60e51b815260206004820152602160248201527f4f6e6c79206f776e65722063616e20726571756573742072616e646f6d6e65736044820152607360f81b60648201526084016101e6565b60005460405163691d91b760e01b81526001600160a01b039091169063691d91b79034906103449086908690600401610504565b6000604051808303818588803b15801561035d57600080fd5b505af1158015610371573d6000803e3d6000fd5b50505050507f0a78f5ea001df2c6d3dc5bf867a6784eac5aa20797602b2833631cddc7ecbe2882826040516103a7929190610504565b60405180910390a15050565b60035460009060ff166104085760405162461bcd60e51b815260206004820152601e60248201527f52616e646f6d20726573756c74206e6f7420796574207265636569766564000060448201526064016101e6565b5060025490565b60008083601f84011261042157600080fd5b50813567ffffffffffffffff81111561043957600080fd5b60208301915083602082850101111561045157600080fd5b9250929050565b6000806000806060858703121561046e57600080fd5b843567ffffffffffffffff81111561048557600080fd5b6104918782880161040f565b909550935050602085013567ffffffffffffffff811681146104b257600080fd5b9396929550929360400135925050565b600080602083850312156104d557600080fd5b823567ffffffffffffffff8111156104ec57600080fd5b6104f88582860161040f565b90969095509350505050565b60208152816020820152818360408301376000818301604090810191909152601f909201601f1916010191905056fea2646970667358221220d2f39300b96a2ce6fdcd1e0612a9886a84825b4ec9b5c1d96f373e993d76794a64736f6c634300081c0033a2646970667358221220f5a6b840842867ffb8c468a1beeeed47ace3697f3059cce1049175da459b1d5264736f6c634300081c0033","linkReferences":{}},"methodIdentifiers":{"NUMBERS()":"89930d43","acceptedTokens(address)":"82dc4a05","addAcceptedToken(address)":"3eee83f1","betTypeMultipliers(uint8)":"0a3ce834","black_numbers(uint256)":"36a1dd0c","cancelOwnershipHandover()":"54d1f13d","completeGame(string)":"318f427b","completeOwnershipHandover(address)":"f04e283e","feePercentage()":"a001ecdd","getBlackNumbersLength()":"1567d536","getRedNumbersLength()":"3792f3f1","isGamePending(string)":"861761ff","liquidityEdge()":"416467ce","manager()":"481c6a75","managerWinFeePercentage()":"1c7ef6c5","numberMultipliers(uint256)":"5b88cbb2","owner()":"8da5cb5b","ownershipHandoverExpiresAt(address)":"fee81cf4","pendingGames(string)":"a9271a1a","play((uint8,uint256[],uint256)[],address)":"298f22df","red_numbers(uint256)":"e2b04d3f","removeAcceptedToken(address)":"d8134a23","renounceOwnership()":"715018a6","requestOwnershipHandover()":"25692962","setBetTypeMultiplier(uint8,uint256)":"e1470b45","setBlackNumbers(uint256[])":"8947aae2","setFeePercentage(uint256)":"ae06c1b7","setLiquidityEdge(uint256)":"d25d324a","setManager(address)":"d0ebdbe7","setManagerWinFeePercentage(uint256)":"de56a366","setRedNumbers(uint256[])":"03265fec","stakingContract()":"ee99205c","toggleRandomness(bool)":"a00cc775","transferOwnership(address)":"f2fde38b","useVRF()":"06038341","vrfConsumers(address)":"464e530c","vrfProvider()":"f60d7046"},"id":26}